{
  "address": "0xcb0807A1262d60a94D6D0a956fe085acB4fEf6fF",
  "abi": [
    {
      "inputs": [
        {
          "internalType": "address",
          "name": "nftAddress",
          "type": "address"
        },
        {
          "internalType": "uint256",
          "name": "_whitelistDurationInSeconds",
          "type": "uint256"
        }
      ],
      "stateMutability": "nonpayable",
      "type": "constructor"
    },
    {
      "inputs": [
        {
          "internalType": "address",
          "name": "owner",
          "type": "address"
        }
      ],
      "name": "OwnableInvalidOwner",
      "type": "error"
    },
    {
      "inputs": [
        {
          "internalType": "address",
          "name": "account",
          "type": "address"
        }
      ],
      "name": "OwnableUnauthorizedAccount",
      "type": "error"
    },
    {
      "anonymous": false,
      "inputs": [
        {
          "indexed": true,
          "internalType": "address",
          "name": "previousOwner",
          "type": "address"
        },
        {
          "indexed": true,
          "internalType": "address",
          "name": "newOwner",
          "type": "address"
        }
      ],
      "name": "OwnershipTransferred",
      "type": "event"
    },
    {
      "inputs": [],
      "name": "MAX_PER_WALLET",
      "outputs": [
        {
          "internalType": "uint256",
          "name": "",
          "type": "uint256"
        }
      ],
      "stateMutability": "view",
      "type": "function"
    },
    {
      "inputs": [],
      "name": "PRICE_PER_NFT",
      "outputs": [
        {
          "internalType": "uint256",
          "name": "",
          "type": "uint256"
        }
      ],
      "stateMutability": "view",
      "type": "function"
    },
    {
      "inputs": [],
      "name": "merkleRoot",
      "outputs": [
        {
          "internalType": "bytes32",
          "name": "",
          "type": "bytes32"
        }
      ],
      "stateMutability": "view",
      "type": "function"
    },
    {
      "inputs": [
        {
          "internalType": "uint256",
          "name": "quantity",
          "type": "uint256"
        },
        {
          "internalType": "bytes32[]",
          "name": "proof",
          "type": "bytes32[]"
        }
      ],
      "name": "mint",
      "outputs": [],
      "stateMutability": "payable",
      "type": "function"
    },
    {
      "inputs": [
        {
          "internalType": "address",
          "name": "",
          "type": "address"
        }
      ],
      "name": "mintedPerWallet",
      "outputs": [
        {
          "internalType": "uint256",
          "name": "",
          "type": "uint256"
        }
      ],
      "stateMutability": "view",
      "type": "function"
    },
    {
      "inputs": [],
      "name": "nft",
      "outputs": [
        {
          "internalType": "contract INFTCollection",
          "name": "",
          "type": "address"
        }
      ],
      "stateMutability": "view",
      "type": "function"
    },
    {
      "inputs": [],
      "name": "owner",
      "outputs": [
        {
          "internalType": "address",
          "name": "",
          "type": "address"
        }
      ],
      "stateMutability": "view",
      "type": "function"
    },
    {
      "inputs": [],
      "name": "renounceOwnership",
      "outputs": [],
      "stateMutability": "nonpayable",
      "type": "function"
    },
    {
      "inputs": [
        {
          "internalType": "bytes32",
          "name": "root",
          "type": "bytes32"
        }
      ],
      "name": "setMerkleRoot",
      "outputs": [],
      "stateMutability": "nonpayable",
      "type": "function"
    },
    {
      "inputs": [
        {
          "internalType": "address",
          "name": "newOwner",
          "type": "address"
        }
      ],
      "name": "transferOwnership",
      "outputs": [],
      "stateMutability": "nonpayable",
      "type": "function"
    },
    {
      "inputs": [],
      "name": "whitelistEndTime",
      "outputs": [
        {
          "internalType": "uint256",
          "name": "",
          "type": "uint256"
        }
      ],
      "stateMutability": "view",
      "type": "function"
    },
    {
      "inputs": [],
      "name": "withdraw",
      "outputs": [],
      "stateMutability": "nonpayable",
      "type": "function"
    }
  ],
  "transactionHash": "0x5b55613a8c46771207dfb24b58c393865ed0797ecca138fa75be73aa91866617",
  "args": [
    "0xee4A9F0f8271aB7fe7c245d2aA566E1b3A12CF51",
    600
  ],
  "numDeployments": 1,
  "solcInputHash": "ed17467a2cd255d70869c3742d0fef7e",
  "bytecode": "0x6080346100f957601f61088438819003918201601f19168301916001600160401b038311848410176100fe5780849260409485528339810103126100f95780516001600160a01b03811691908290036100f9576020015133156100e35760008054336001600160a01b0319821681178355604051949290916001600160a01b0316907f8be0079c531659141344cd1fd0a4f28419497f9722a3daafe3b4186f6b6457e09080a360018060a01b0319600154161760015542018042116100cd5760035561076f90816101158239f35b634e487b7160e01b600052601160045260246000fd5b631e4fbdf760e01b600052600060045260246000fd5b600080fd5b634e487b7160e01b600052604160045260246000fdfe608080604052600436101561001357600080fd5b600090813560e01c9081630f2cdd6c14610681575080632eb4a7ab146106635780633a602b4d146106275780633ccfd60b146105d757806347ccca02146105b0578063715018a61461054a5780637cb64759146105275780638da5cb5b14610501578063a4de304f146104df578063ba41b0c614610175578063ebdfd722146101575763f2fde38b146100a557600080fd5b34610154576020366003190112610154576004356001600160a01b038116809103610152576100d26106f7565b8015610126576001600160a01b0382548273ffffffffffffffffffffffffffffffffffffffff198216178455167f8be0079c531659141344cd1fd0a4f28419497f9722a3daafe3b4186f6b6457e08380a380f35b6024827f1e4fbdf700000000000000000000000000000000000000000000000000000000815280600452fd5b505b80fd5b50346101545780600319360112610154576020600354604051908152f35b5060403660031901126101545760243560043567ffffffffffffffff82116104db57366023830112156104db5781600401359167ffffffffffffffff83116104d7578260051b90602482820101903682116104d357831561048f57338652600460205260056101e885604089205461069c565b1161044b5760035442116103c75760405160208101903360601b8252601481526102136034826106bf565b5190209461022760206040519501856106bf565b8352602401602083015b8282106103b757505050600254929184925b82518410156102865760208460051b84010151908181106000146102755786526020526001604086205b930192610243565b90865260205260016040862061026d565b915092915003610373573461032f5781905b3382526004602052604082206102af82825461069c565b90556001600160a01b036001541690813b1561032b5782916044839260405195869384927f449a52f800000000000000000000000000000000000000000000000000000000845233600485015260248401525af1801561031e576103105780f35b610319916106bf565b388180f35b50604051903d90823e3d90fd5b5050fd5b606460405162461bcd60e51b815260206004820152601660248201527f57686974656c697374206d696e742069732066726565000000000000000000006044820152fd5b606460405162461bcd60e51b815260206004820152601460248201527f496e76616c6964204d65726b6c652050726f6f660000000000000000000000006044820152fd5b8135815260209182019101610231565b5050509050660aa87bee5380008102818104660aa87bee538000036104375734036103f3578190610298565b606460405162461bcd60e51b815260206004820152601360248201527f496e636f7272656374204554482076616c7565000000000000000000000000006044820152fd5b602483634e487b7160e01b81526011600452fd5b606460405162461bcd60e51b815260206004820152601460248201527f457863656564732077616c6c6574206c696d69740000000000000000000000006044820152fd5b606460405162461bcd60e51b815260206004820152600d60248201527f43616e6e6f74206d696e742030000000000000000000000000000000000000006044820152fd5b8580fd5b8380fd5b8280fd5b50346101545780600319360112610154576020604051660aa87bee5380008152f35b50346101545780600319360112610154576001600160a01b036020915416604051908152f35b5034610154576020366003190112610154576105416106f7565b60043560025580f35b50346101545780600319360112610154576105636106f7565b806001600160a01b03815473ffffffffffffffffffffffffffffffffffffffff1981168355167f8be0079c531659141344cd1fd0a4f28419497f9722a3daafe3b4186f6b6457e08280a380f35b503461015457806003193601126101545760206001600160a01b0360015416604051908152f35b50346101545780600319360112610154576105f06106f7565b808080806001600160a01b03815416479082821561061e575bf1156106125780f35b604051903d90823e3d90fd5b506108fc610609565b5034610154576020366003190112610154576004356001600160a01b038116809103610152578160409160209352600483522054604051908152f35b50346101545780600319360112610154576020600254604051908152f35b90503461015257816003193601126101525780600560209252f35b919082018092116106a957565b634e487b7160e01b600052601160045260246000fd5b90601f8019910116810190811067ffffffffffffffff8211176106e157604052565b634e487b7160e01b600052604160045260246000fd5b6001600160a01b0360005416330361070b57565b7f118cdaa7000000000000000000000000000000000000000000000000000000006000523360045260246000fdfea264697066735822122084b21df5194a18de52d3a8914cd2608a770b2b30ac30ea2b2de83f551edfaf1664736f6c634300081c0033",
  "devdoc": {
    "errors": {
      "OwnableInvalidOwner(address)": [
        {
          "details": "The owner is not a valid owner account. (eg. `address(0)`)"
        }
      ],
      "OwnableUnauthorizedAccount(address)": [
        {
          "details": "The caller account is not authorized to perform an operation."
        }
      ]
    },
    "kind": "dev",
    "methods": {
      "owner()": {
        "details": "Returns the address of the current owner."
      },
      "renounceOwnership()": {
        "details": "Leaves the contract without owner. It will not be possible to call `onlyOwner` functions. Can only be called by the current owner. NOTE: Renouncing ownership will leave the contract without an owner, thereby disabling any functionality that is only available to the owner."
      },
      "transferOwnership(address)": {
        "details": "Transfers ownership of the contract to a new account (`newOwner`). Can only be called by the current owner."
      }
    },
    "version": 1
  },
  "userdoc": {
    "kind": "user",
    "methods": {},
    "version": 1
  },
  "storageLayout": {
    "storage": [
      {
        "astId": 8,
        "contract": "contracts/WhitelistSale.sol:WhitelistSale",
        "label": "_owner",
        "offset": 0,
        "slot": "0",
        "type": "t_address"
      },
      {
        "astId": 7730,
        "contract": "contracts/WhitelistSale.sol:WhitelistSale",
        "label": "nft",
        "offset": 0,
        "slot": "1",
        "type": "t_contract(INFTCollection)7721"
      },
      {
        "astId": 7732,
        "contract": "contracts/WhitelistSale.sol:WhitelistSale",
        "label": "merkleRoot",
        "offset": 0,
        "slot": "2",
        "type": "t_bytes32"
      },
      {
        "astId": 7740,
        "contract": "contracts/WhitelistSale.sol:WhitelistSale",
        "label": "whitelistEndTime",
        "offset": 0,
        "slot": "3",
        "type": "t_uint256"
      },
      {
        "astId": 7744,
        "contract": "contracts/WhitelistSale.sol:WhitelistSale",
        "label": "mintedPerWallet",
        "offset": 0,
        "slot": "4",
        "type": "t_mapping(t_address,t_uint256)"
      }
    ],
    "types": {
      "t_address": {
        "encoding": "inplace",
        "label": "address",
        "numberOfBytes": "20"
      },
      "t_bytes32": {
        "encoding": "inplace",
        "label": "bytes32",
        "numberOfBytes": "32"
      },
      "t_contract(INFTCollection)7721": {
        "encoding": "inplace",
        "label": "contract INFTCollection",
        "numberOfBytes": "20"
      },
      "t_mapping(t_address,t_uint256)": {
        "encoding": "mapping",
        "key": "t_address",
        "label": "mapping(address => uint256)",
        "numberOfBytes": "32",
        "value": "t_uint256"
      },
      "t_uint256": {
        "encoding": "inplace",
        "label": "uint256",
        "numberOfBytes": "32"
      }
    }
  }
}